{
  "address": "0x81dF732e10acEE4c195ee2467Fe4A4423a15C993",
  "abi": [
    {
      "inputs": [
        {
          "internalType": "uint256",
          "name": "chainId",
          "type": "uint256"
        },
        {
          "internalType": "string",
          "name": "version_",
          "type": "string"
        }
      ],
      "stateMutability": "nonpayable",
      "type": "constructor"
    },
    {
      "inputs": [],
      "name": "ACCOUNT_TYPEHASH",
      "outputs": [
        {
          "internalType": "bytes32",
          "name": "",
          "type": "bytes32"
        }
      ],
      "stateMutability": "view",
      "type": "function"
    },
    {
      "inputs": [],
      "name": "DOMAIN_SEPARATOR",
      "outputs": [
        {
          "internalType": "bytes32",
          "name": "",
          "type": "bytes32"
        }
      ],
      "stateMutability": "view",
      "type": "function"
    },
    {
      "inputs": [],
      "name": "DOMAIN_TYPEHASH",
      "outputs": [
        {
          "internalType": "bytes32",
          "name": "",
          "type": "bytes32"
        }
      ],
      "stateMutability": "view",
      "type": "function"
    },
    {
      "inputs": [
        {
          "components": [
            {
              "internalType": "string",
              "name": "name",
              "type": "string"
            },
            {
              "internalType": "uint256",
              "name": "amount",
              "type": "uint256"
            }
          ],
          "internalType": "struct EIP712.Account",
          "name": "account",
          "type": "tuple"
        }
      ],
      "name": "hashStruct",
      "outputs": [
        {
          "internalType": "bytes32",
          "name": "",
          "type": "bytes32"
        }
      ],
      "stateMutability": "pure",
      "type": "function"
    },
    {
      "inputs": [],
      "name": "name",
      "outputs": [
        {
          "internalType": "string",
          "name": "",
          "type": "string"
        }
      ],
      "stateMutability": "view",
      "type": "function"
    },
    {
      "inputs": [
        {
          "components": [
            {
              "internalType": "string",
              "name": "name",
              "type": "string"
            },
            {
              "internalType": "uint256",
              "name": "amount",
              "type": "uint256"
            }
          ],
          "internalType": "struct EIP712.Account",
          "name": "account",
          "type": "tuple"
        },
        {
          "internalType": "uint8",
          "name": "v",
          "type": "uint8"
        },
        {
          "internalType": "bytes32",
          "name": "r",
          "type": "bytes32"
        },
        {
          "internalType": "bytes32",
          "name": "s",
          "type": "bytes32"
        }
      ],
      "name": "recoverSigner",
      "outputs": [
        {
          "internalType": "address",
          "name": "",
          "type": "address"
        }
      ],
      "stateMutability": "view",
      "type": "function"
    },
    {
      "inputs": [],
      "name": "version",
      "outputs": [
        {
          "internalType": "string",
          "name": "",
          "type": "string"
        }
      ],
      "stateMutability": "view",
      "type": "function"
    }
  ],
  "transactionHash": "0x5566200858b66538cd1ed844bae474273eeb9cd383f5907c9fc94011bbc50599",
  "args": [
    11155111,
    "1"
  ],
  "numDeployments": 2,
  "solcInputHash": "a6a959d0e4be1333350b19a3deb61f70",
  "bytecode": "0x608060405234801561001057600080fd5b506040516111333803806111338339818101604052810190610032919061029b565b8060019081610041919061050e565b507f8b73c3c69bb8fe3d512ecc4cf759cc79239f7b179b0ffacaa9a75d522b39400f6040518060400160405280600681526020017f45495037313200000000000000000000000000000000000000000000000000008152508051906020012060016040516100af9190610683565b604051809103902084306040516020016100cd959493929190610703565b604051602081830303815290604052805190602001206000819055505050610756565b6000604051905090565b600080fd5b600080fd5b6000819050919050565b61011781610104565b811461012257600080fd5b50565b6000815190506101348161010e565b92915050565b600080fd5b600080fd5b6000601f19601f8301169050919050565b7f4e487b7100000000000000000000000000000000000000000000000000000000600052604160045260246000fd5b61018d82610144565b810181811067ffffffffffffffff821117156101ac576101ab610155565b5b80604052505050565b60006101bf6100f0565b90506101cb8282610184565b919050565b600067ffffffffffffffff8211156101eb576101ea610155565b5b6101f482610144565b9050602081019050919050565b60005b8381101561021f578082015181840152602081019050610204565b60008484015250505050565b600061023e610239846101d0565b6101b5565b90508281526020810184848401111561025a5761025961013f565b5b610265848285610201565b509392505050565b600082601f8301126102825761028161013a565b5b815161029284826020860161022b565b91505092915050565b600080604083850312156102b2576102b16100fa565b5b60006102c085828601610125565b925050602083015167ffffffffffffffff8111156102e1576102e06100ff565b5b6102ed8582860161026d565b9150509250929050565b600081519050919050565b7f4e487b7100000000000000000000000000000000000000000000000000000000600052602260045260246000fd5b6000600282049050600182168061034957607f821691505b60208210810361035c5761035b610302565b5b50919050565b60008190508160005260206000209050919050565b60006020601f8301049050919050565b600082821b905092915050565b6000600883026103c47fffffffffffffffffffffffffffffffffffffffffffffffffffffffffffffffff82610387565b6103ce8683610387565b95508019841693508086168417925050509392505050565b6000819050919050565b600061040b61040661040184610104565b6103e6565b610104565b9050919050565b6000819050919050565b610425836103f0565b61043961043182610412565b848454610394565b825550505050565b600090565b61044e610441565b61045981848461041c565b505050565b5b8181101561047d57610472600082610446565b60018101905061045f565b5050565b601f8211156104c25761049381610362565b61049c84610377565b810160208510156104ab578190505b6104bf6104b785610377565b83018261045e565b50505b505050565b600082821c905092915050565b60006104e5600019846008026104c7565b1980831691505092915050565b60006104fe83836104d4565b9150826002028217905092915050565b610517826102f7565b67ffffffffffffffff8111156105305761052f610155565b5b61053a8254610331565b610545828285610481565b600060209050601f8311600181146105785760008415610566578287015190505b61057085826104f2565b8655506105d8565b601f19841661058686610362565b60005b828110156105ae57848901518255600182019150602085019450602081019050610589565b868310156105cb57848901516105c7601f8916826104d4565b8355505b6001600288020188555050505b505050505050565b600081905092915050565b60008190508160005260206000209050919050565b6000815461060d81610331565b61061781866105e0565b9450600182166000811461063257600181146106475761067a565b60ff198316865281151582028601935061067a565b610650856105eb565b60005b8381101561067257815481890152600182019150602081019050610653565b838801955050505b50505092915050565b600061068f8284610600565b915081905092915050565b6000819050919050565b6106ad8161069a565b82525050565b6106bc81610104565b82525050565b600073ffffffffffffffffffffffffffffffffffffffff82169050919050565b60006106ed826106c2565b9050919050565b6106fd816106e2565b82525050565b600060a08201905061071860008301886106a4565b61072560208301876106a4565b61073260408301866106a4565b61073f60608301856106b3565b61074c60808301846106f4565b9695505050505050565b6109ce806107656000396000f3fe608060405234801561001057600080fd5b506004361061007d5760003560e01c80633003aa5c1161005b5780633003aa5c146100ee5780633644e5151461010c57806354fd4d501461012a578063802708f5146101485761007d565b806304d41a811461008257806306fdde03146100b257806320606b70146100d0575b600080fd5b61009c6004803603810190610097919061058d565b610178565b6040516100a991906105ef565b60405180910390f35b6100ba6101db565b6040516100c79190610689565b60405180910390f35b6100d8610214565b6040516100e591906105ef565b60405180910390f35b6100f6610238565b60405161010391906105ef565b60405180910390f35b61011461025c565b60405161012191906105ef565b60405180910390f35b610132610262565b60405161013f9190610689565b60405180910390f35b610162600480360381019061015d9190610710565b6102f0565b60405161016f91906107d4565b60405180910390f35b60007fb462ca2d10c33fd64fabd08be03d02973369ae65ed280324b0f5397012ac416582600001518051906020012083602001516040516020016101be939291906107fe565b604051602081830303815290604052805190602001209050919050565b6040518060400160405280600681526020017f454950373132000000000000000000000000000000000000000000000000000081525081565b7f8b73c3c69bb8fe3d512ecc4cf759cc79239f7b179b0ffacaa9a75d522b39400f81565b7fb462ca2d10c33fd64fabd08be03d02973369ae65ed280324b0f5397012ac416581565b60005481565b6001805461026f90610864565b80601f016020809104026020016040519081016040528092919081815260200182805461029b90610864565b80156102e85780601f106102bd576101008083540402835291602001916102e8565b820191906000526020600020905b8154815290600101906020018083116102cb57829003601f168201915b505050505081565b6000806102fc86610178565b9050600080548260405160200161031492919061090d565b6040516020818303038152906040528051906020012090506001818787876040516000815260200160405260405161034f9493929190610953565b6020604051602081039080840390855afa158015610371573d6000803e3d6000fd5b5050506020604051035192505050949350505050565b6000604051905090565b600080fd5b600080fd5b600080fd5b6000601f19601f8301169050919050565b7f4e487b7100000000000000000000000000000000000000000000000000000000600052604160045260246000fd5b6103e9826103a0565b810181811067ffffffffffffffff82111715610408576104076103b1565b5b80604052505050565b600061041b610387565b905061042782826103e0565b919050565b600080fd5b600080fd5b600080fd5b600067ffffffffffffffff821115610456576104556103b1565b5b61045f826103a0565b9050602081019050919050565b82818337600083830152505050565b600061048e6104898461043b565b610411565b9050828152602081018484840111156104aa576104a9610436565b5b6104b584828561046c565b509392505050565b600082601f8301126104d2576104d1610431565b5b81356104e284826020860161047b565b91505092915050565b6000819050919050565b6104fe816104eb565b811461050957600080fd5b50565b60008135905061051b816104f5565b92915050565b6000604082840312156105375761053661039b565b5b6105416040610411565b9050600082013567ffffffffffffffff8111156105615761056061042c565b5b61056d848285016104bd565b60008301525060206105818482850161050c565b60208301525092915050565b6000602082840312156105a3576105a2610391565b5b600082013567ffffffffffffffff8111156105c1576105c0610396565b5b6105cd84828501610521565b91505092915050565b6000819050919050565b6105e9816105d6565b82525050565b600060208201905061060460008301846105e0565b92915050565b600081519050919050565b600082825260208201905092915050565b60005b83811015610644578082015181840152602081019050610629565b60008484015250505050565b600061065b8261060a565b6106658185610615565b9350610675818560208601610626565b61067e816103a0565b840191505092915050565b600060208201905081810360008301526106a38184610650565b905092915050565b600060ff82169050919050565b6106c1816106ab565b81146106cc57600080fd5b50565b6000813590506106de816106b8565b92915050565b6106ed816105d6565b81146106f857600080fd5b50565b60008135905061070a816106e4565b92915050565b6000806000806080858703121561072a57610729610391565b5b600085013567ffffffffffffffff81111561074857610747610396565b5b61075487828801610521565b9450506020610765878288016106cf565b9350506040610776878288016106fb565b9250506060610787878288016106fb565b91505092959194509250565b600073ffffffffffffffffffffffffffffffffffffffff82169050919050565b60006107be82610793565b9050919050565b6107ce816107b3565b82525050565b60006020820190506107e960008301846107c5565b92915050565b6107f8816104eb565b82525050565b600060608201905061081360008301866105e0565b61082060208301856105e0565b61082d60408301846107ef565b949350505050565b7f4e487b7100000000000000000000000000000000000000000000000000000000600052602260045260246000fd5b6000600282049050600182168061087c57607f821691505b60208210810361088f5761088e610835565b5b50919050565b600081905092915050565b7f1901000000000000000000000000000000000000000000000000000000000000600082015250565b60006108d6600283610895565b91506108e1826108a0565b600282019050919050565b6000819050919050565b610907610902826105d6565b6108ec565b82525050565b6000610918826108c9565b915061092482856108f6565b60208201915061093482846108f6565b6020820191508190509392505050565b61094d816106ab565b82525050565b600060808201905061096860008301876105e0565b6109756020830186610944565b61098260408301856105e0565b61098f60608301846105e0565b9594505050505056fea264697066735822122073290c39a4174803da71e0acd6481658e9f097e8d5f3d26c58fe926b2c045a7964736f6c634300081c0033",
  "devdoc": {
    "kind": "dev",
    "methods": {},
    "version": 1
  },
  "userdoc": {
    "kind": "user",
    "methods": {},
    "version": 1
  },
  "storageLayout": {
    "storage": [
      {
        "astId": 21,
        "contract": "contracts/EIP712.sol:EIP712",
        "label": "DOMAIN_SEPARATOR",
        "offset": 0,
        "slot": "0",
        "type": "t_bytes32"
      },
      {
        "astId": 23,
        "contract": "contracts/EIP712.sol:EIP712",
        "label": "version",
        "offset": 0,
        "slot": "1",
        "type": "t_string_storage"
      }
    ],
    "types": {
      "t_bytes32": {
        "encoding": "inplace",
        "label": "bytes32",
        "numberOfBytes": "32"
      },
      "t_string_storage": {
        "encoding": "bytes",
        "label": "string",
        "numberOfBytes": "32"
      }
    }
  }
}